:1010F80004333F80000004213F80000002390000D3
:0E11080002370000042500000000022D000048
:100BD800D294D295D296D297C290D291D292D293F1
:100BE8002094161210B23094FDE4F536F5357534BC
:100BF8008075333FF52D752E012095181210B230EF
:100C080095FD7536A075358975348875333F752D12
:100C180000752E012096161210B23096FDE4F536B6
:100C2800F53575349075333FF52D752E01209718DD
:100C38001210B23097FD7536A27535B475349775B4
:100C4800333F752D00752E01D290C291D292D29366
:100C58002094161210B23094FDE4F536F53575344B
:100C6800A075333FF52D752E012095181210B2305E
:100C780095FD7536937535A97534AA75333F752D6D
:100C880000752E012096181210B23096FD7536198F
:100C98007535047534B675333F752D00752E0120F2
:100CA80097161210B23097FDE4F536F5357534C055
:100CB80075333FF52D752E01D290D291C292D29301
:100CC8002094181210B23094FD7536CD7535CC7558
:100CD80034CC75333F752D00752E012095161210F2
:100CE800B23095FDE4F536F5357534D875333FF5F2
:100CF8002D752E012096181210B23096FD7536F318
:100D080075358E7534E375333F752D00752E0120CA
:100D180097161210B23097FDE4F536F5357534F0B4
:100D280075333FF52D752E01D290D291D292C29390
:100D38002094161210B23094FDE4F524F5237522A0
:100D48008075213FF52D752E012095151210B230B2
:100D580095FDE4F524F523F522752140F52D752E32
:100D6800012096161210B23096FDE4F524F523758D
:100D78002280752140F52D752E012097151210B28D
:100D88003097FDE4F524F523F522752141F52D75FD
:030D98002E012207
:1010D700AD07AC06EC1209AB7BDB7A0F79C9784018
:1010E700120800E4FBFA79C07841120909120DF9D8
:0110F70022D6
:081013008F158E148D138C1251
:10101B00E4F516F517F53775380AAB15AA14A913AD
:10102B00A8127F007E507DC37C471209091209E488
:10103B008E168F17D2801210B6C280AF17AE161253
:10104B0010B6E538153870021537D3E5389400E53E
:07105B00376480948050C34C
:01106200226B
:080F95008F0B8E0A8D098C08F8
:100F9D00E4F50CF50DF53775380AE4F539F53AAF8A
:100FAD003AAE391210D78F288E278D268C25E4FF67
:100FBD00FE7DC07C41AB0BAA0AA909A80812080046
:100FCD00A804A905AA06AB077F007EC07DF27CC6EA
:100FDD001209091209E48E0C8F0D1210B6053AE5AF
:100FED003A70020539C39418E5396480948040AF96
:100FFD00E538153870021537D3E5389400E53764B8
:05100D00809480509565
:0110120022BB
:10106300E4F5807590F0C280F52CF52B752A7A751E
:101073002944F52DF52E120BD8E52E6401452D706C
:10108300F5120BD8AF2CAE2BAD2AAC29AB24AA2377
:10109300A922A821120800AB36AA35A934A8331215
:0F10A30008008F328E318D308C2F120F9580CA3E
:0410B2007F0A7E0033
:1010B600D3EF9400EE648094804015E4FCFD0DBDF2
:1010C60000010CED64144C70F5EF1F70E31E80E018
:0110D60022F7
:10080000EC4D6011E8497017ED33EC3304600DE4F2
:10081000FCFFFEFD22E933E8330470F8020A5012AF
:100820000A1B58046009E4CC2481500628500902B0
:100830000A5A284003020A57C0E0EB4A7044B980C4
:1008400006D0E0FB020A46EF4E701CBD8008EBFFAD
:10085000EAFEE9FD80EBE98DF0A4FEE5F00208E98F
:10086000E9CDF9EAFEEBFFEF89F0A4FCE5F0CE89D3
:10087000F0A42EFFE435F0CD89F0A42DFEE435F090
:100880008067EF4E7005BD80D780C3EF8BF0A4ACBE
:10089000F0EE8BF0A42CFCE435F0F8EF8AF0A42CF9
:1008A000E5F038FCE433CB8DF0A42CFCE5F03BF80C
:1008B000EE8AF0A42CFCE5F038F8E433CF89F0A4FC
:1008C0002CFCE5F038CF3400CE89F0A42FFFE5F002
:1008D0003EFEE433C98DF0A42EFEE5F039CD8AF05A
:1008E000A42FFFE5F03EFEE43DFD33D0E0FB5007D2
:1008F0000BBB000F020A5AEC2CFCEF33FFEE33FE69
:06090000ED33FD020A3296
:10090600020A5AEC5D046005E859047003020A50B5
:10091600120A1B580460F6EC4860F2EC7004FDFE07
:10092600FF22C860DB2481C85009C39860025006C4
:10093600020A579850CAF582E9294B4A7005AB82DC
:10094600020A4675F0007C1A7880C3EF9BEE9AED9A
:1009560099400DC3EF9BFFEE9AFEED99FDE842F03C
:10096600DC23ACF0D0E0FFD0E0FED0E0FDAB82208F
:10097600E7101BEB60BAEC2CFCEF33FFEE33FEED19
:1009860033FD020A32E803F830E705C0F075F000DF
:10099600EF2FFFEE33FEED33FD40B830E7C280AAFD
:1009A60075F020800E75F010800575F0087D007ECC
:1009B600007F003392D530D503120BAAEC334010DA
:1009C600EF33FFEE33FEED33FDEC33FCD5F0ED22D5
:0E09D600E5F0247EA2D513CC92E7CDCEFF2211
:1009E400EDD2E7CD33EC3392D524814006E4FFFE0B
:1009F400FDFC22FCE4CFCECDCC24E0501174FF806A
:100A0400EDC3CC13CCCD13CDCE13CECF13CF047006
:070A1400F030D5DE020BAA51
:100D9B003A70FA83BCAAE9E43E81E0F8BF9DE9E62C
:100DAB003F80000039283C1ABB9969663DA335E3A7
:100DBB00BF255DE73FC90FDB418DDBCCC44936EE68
:100DCB0045C9913FC5B0F83D3F800000C317F534CE
:100DDB00452FFA73C60AFDDD120E8A04A2E19200BA
:100DEB001420E015900D9B7404120B5D8026120EDF
:100DFB008A30E102B20020E0EB8C0E8D0F8E108F4B
:100E0B0011900DAF7404120B5DA80EA90FAA10ABB5
:100E1B0011120800ED4C6007300004EC6480FC22DA
:100E2B00120E8AC0E08C0E8D0F8E108F11900DD389
:100E3B007403120B5DA80EA90FAA10AB11120800B8
:100E4B00ECC50EFCEDC50FFDEEC510FEEFC511FF99
:100E5B00900DC37403120B5DD082A80EA90FAA10BC
:100E6B00AB11E58230E007120909B20080A6EFCB87
:100E7B00FFEECAFEEDC9FDECC8FC1209098095ED29
:100E8B0033EC547FCC33920024605007D0E0D0E099
:100E9B00020A507B837AF97922783E120800EDF929
:100EAB0033ECF83324815011EFFBEEFA1209E41204
:100EBB0009A6ECB2E7FC120A6CED33EC33602F247D
:100ECB0003F8C313FCED92E7FDE82481E4501FEC1B
:100EDB00F8EDF9EEFAEFFB1209E4EF04C2E0FCF5D2
:100EEB00821209B0ECB2E7FC120A6CE58203FAED50
:0E0EFB0033EC3360071413FCED92E7FDEA229E
:100A1B00E9D2E7C933E833F892D5EDD2E7CD33EC21
:070A2B0033FC5002B2D5229A
:100A3200EC30E7100FBF000C0EBE00080DBD000425
:100A42000BEB6014A2D5EB13FCED92E7FD2274FFD1
:100A5200FCFDFEFF22E480F8A2D574FF13FC7D802A
:030A6200E480EF3E
:100A6500020A50E86480F8E933E83360110460F065
:100A7500ED33EC337009E8FCE9FDEAFEEBFF2204F7
:100A850060DED3EB9FEA9EE99DE8C2E78CF0C2F7F2
:100A950095F0400CE8CCF8E9CDF9EACEFAEBCFFBBE
:100AA500120A1B85D0F05804700320D5B3E80470F2
:100AB500075002B2D5020A5A92D5EC0460F7E4CC8D
:100AC500C0E0C398F8603B94186008400DD0E0FB87
:100AD500020A32E4FBFAC9FC8028E830E406E4C9DE
:100AE500FBE4CAFCE830E305E4C9CACBFCE85407DB
:100AF5006010F8C3E913F9EA13FAEB13FBEC13FCE6
:100B0500D8F130F52FC3E49CFCEF9BFFEE9AFEED88
:100B150099FDD0E0FBEF4E4D4C701222DB03020A2B
:100B250057EC2CFCEF33FFEE33FEED33FDED30E7F4
:100B3500EB020A32EF2BFFEE3AFEED39FDD0E0FB7A
:100B450050130BBB0003020A5AED13FDEE13FEEF23
:080B550013FFEC13FC020A324D
:100B5D00C0E0EFFBEEFAEDF9ECF8120800D0E0F58D
:100B6D00F0EFFBEEFAEDF9ECF8120BB8A3A3A3A38B
:100B7D00E8C0E0E9C0E0EAC0E0EBC0E0C0F0120878
:100B8D0000120BC8A3A3A3A3120A6CD0F0D0E0FBF4
:0D0B9D00D0E0FAD0E0F9D0E0F8D5F0D42295
:03000000020F09E3
:0C0F0900787FE4F6D8FD75813A020F50A5
:0E0BAA00C3E49FFFE49EFEE49DFDE49CFC225C
:100BB800E493FC740193FD740293FE740393FF2283
:100BC800E493F8740193F9740293FA740393FB2283
:100F1500021063E493A3F8E493A34003F68001F27F
:100F250008DFF48029E493A3F85407240CC8C333DD
:100F3500C4540F4420C8834004F456800146F6DFAC
:100F4500E4800B01020408102040809010F8E47E34
:100F5500019360BCA3FF543F30E509541FFEE493A1
:100F6500A360010ECF54C025E060A840B8E493A368
:100F7500FAE493A3F8E493A3C8C582C8CAC583CA93
:100F8500F0A3C8C582C8CAC583CADFE9DEE780BE4B
:0111160000D8
:00000001FF
